:020000040000FA
:1000000002002700000080FB120051B9000302002B
:100010001175826D7583007400120033758203754B
:100020008300740012003375D0007581BF759F0086
:10003000020008C09FF59FE473D09F22D083D08236
:10004000C09FE493C0E0740193C0E0740293F59FF5
:100050002279012212003C5A0000EAF8EBF9E82468
:10006000FFFAE934FFFBE84970F002003953F4CF9E
:1000700043FE03C290C291D2907A507BC3120054C7
:10008000D2917A507BC3120054C2907A507BC31233
:0D0090000054C2917A507BC312005480DAF4
:0400000500000027D0
:00000001FF
