:020000040000FA
:1000000002005000000080FB120080B900030200D3
:100010003A900F00AA82AB8390008378097901801F
:1000200015E493A3AC82AD838A828B83F0A3AA826A
:10003000AB838C828D83D8E9D9E7758256758302AC
:1000400074001200627582037583007400120062EE
:1000500075D0007581BF75100075110F759F000276
:100060000008C09FF59FE473D09F22D083D082C048
:100070009FE493C0E0740193C0E0740293F59F2263
:10008000790122E600D600CE00C70012006BA00165
:100090000012006BB3010012006BBC0100CAC0E08B
:1000A000E0A3C582CCC582C583CDC583F0A3C5823C
:1000B000CCC582C583CDC583DAE6D0E0CA2225103F
:1000C00010AF08F510400215118008F51040021518
:1000D00011D2AF22C0D0251010AF08F51050020584
:1000E000118008F51050020511D2AFD0D022251092
:1000F000C582C0E0E51134FFC583C0E0E510C395BB
:100100008224F810AF0885831185821080088583CA
:1001100011858210D2AFCEF0A3E520F0A37808E6D7
:1001200008F0A3DEFAEFF0A3E58124FAF8E608F080
:10013000A3E608F0A3E608F0A30808E608F0A3E6A3
:1001400008F0A315811581D0E0FED0E0F8158115E7
:10015000811581E8C0E0EEC0E02285118385108220
:10016000E0A3FEE0A3F5207808E0A3F608DFFAE0BC
:10017000A3FFE0A3C0E0E0A3C0E0E0A3C0E0E0A3F1
:10018000C0E0E0A3C0E010AF088582108583118035
:1001900008858210858311D2AFD083D08202006897
:1001A000EAF8EBF9E824FFFAE934FFFBE84970F0DC
:1001B00002006843FE395390C602006874F71200CB
:1001C000EE74F81200BE900F00C082C083851082CA
:1001D000851183AC82AD83D083D082740812009DD8
:1001E0007E008040EEF87900E875F002A4C8AAF01D
:1001F00075F000A42AFA75F002E9A42AF9851082A4
:10020000851183E58228F582E58339F583E0F8A33B
:10021000E0F9E8F5907A607BEA12008B7A607BEA7D
:1002200012008B0EEEC3940540BA7A607BEA12008E
:100230008B7A607BEA12008B5390C67A607BEA125D
:10024000008B7A607BEA12008B539039740812009D
:0E025000D47F0102015A12009112009780FB28
:0400000500000050A7
:00000001FF
