:020000040000FA
:1000000002005000000080FB120080B900030200D3
:100010003A900F00AA82AB83900083780F79018019
:1000200015E493A3AC82AD838A828B83F0A3AA826A
:10003000AB838C828D83D8E9D9E77582E175830221
:1000400074001200627582037583007400120062EE
:1000500075D0007581BF75100075110F759F000276
:100060000008C09FF59FE473D09F22D083D082C048
:100070009FE493C0E0740193C0E0740293F59F2263
:10008000790122010003000B001B000B000300019B
:100090000012006BAC010012006BBF010012006B7C
:1000A000E3010012006B7A0200CAC0E0E0A3C5823F
:1000B000CCC582C583CDC583F0A3C582CCC582C51E
:1000C00083CDC583DAE6D0E0CA22251010AF08F54B
:1000D00010400215118008F51040021511D2AF2210
:1000E000C0D0251010AF08F510500205118008F59A
:1000F0001050020511D2AFD0D0222510C582C0E029
:10010000E51134FFC583C0E0E510C3958224F810E3
:10011000AF08858311858210800885831185821040
:10012000D2AFCEF0A3E520F0A37808E608F0A3DE76
:10013000FAEFF0A3E58124FAF8E608F0A3E608F068
:10014000A3E608F0A30808E608F0A3E608F0A31564
:10015000811581D0E0FED0E0F8158115811581E888
:10016000C0E0EEC0E022851183851082E0A3FEE0AE
:10017000A3F5207808E0A3F608DFFAE0A3FFE0A3E8
:10018000C0E0E0A3C0E0E0A3C0E0E0A3C0E0E0A3E3
:10019000C0E010AF08858210858311800885821029
:1001A000858311D2AFD083D082020068EAF8EBF9E0
:1001B000E824FFFAE934FFFBE84970F002006853D5
:1001C000F4E443FE1B5390E453F4FB53FEFB53F65D
:1001D000FB53F7BF53F3FD53FDFD538FFD53F7DF83
:1001E00002006874F51200FA74F21200CAEAFEEB1B
:1001F000FF900F00C082C083851082851183AC827E
:10020000AD83D083D082740E1200A9750A0080518C
:10021000E50AA80A7900E875F002A4C8AAF075F00A
:1002200000A42AFA75F002E9A42AF9851082851142
:1002300083E58228F582E58339F583E0F8A3E0F9C8
:10024000E8F5907A607BEA1200917A607BEA12000E
:10025000917A607BEA1200917A607BEA1200910544
:100260000A850A08750900C3E5089EE5099F40A0B4
:10027000740E1200E07F03020166C082C083A29266
:10028000402A7AC87B00120091A292401FA292508D
:10029000FC75901B7A607BEA1200917A607BEA120F
:1002A00000915390E47A047B0012009DA281402AC1
:1002B0007AC87B00120091A281401FA28150FC7578
:1002C000901B7A607BEA1200917A607BEA120091BF
:1002D0005390E47A077B0012009DD083D082020005
:0902E000681200971200A380FBD4
:0400000500000050A7
:00000001FF
